:0400000080311D2806
:100008007E14803120007F08F2008B1A0B1D102807
:100018008331F223803118282100911C18282000F0
:10002800911C18288331A32372082000FF007E103A
:10003800090080311F28F601F701F801F901203085
:1000480084000030850014308331F92380318431F5
:100058000E248031B90084310F24BA007E102000AC
:100068008131D22920002E032F04031DEB28200004
:100078000C0E0139F300F4017308AE007408AF00E8
:100088000C0E890C0139F300F4017308B0007408F0
:10009800B10030083104031D36280230F500043061
:1000A800F400BA30F300F30B5728F40B5728F50B7C
:1000B8005728000020000C0E890C0139F300F401C8
:1000C8007308B0007408B1000230F5000430F40081
:1000D800BA30F300F30B6E28F40B6E28F50B6E287C
:1000E8000000200030083104031DD7285E282408AA
:1000F800013EA4000030253DA500003025020A304D
:1001080003192402031C3628A401A5013628260851
:10011800013EA6000030273DA70000302702063028
:1001280003192602031C3628A601A70136287608DB
:10013800013EF6000030773DF700003079020230CA
:1001480003197802031CAF28003077020430031922
:1001580076020318B628003077020A3003197602AF
:10016800031C3628F601F70136287808013EF80006
:100178000030793DF9000030770204300319760227
:10018800031CCD28003079020230031978020318C5
:10019800D42800307902033003197802031C36286A
:1001A800F801F90136282D08003A0319DC28362809
:1001B8002C08013A03197B28033A03198B28013AC2
:1001C80003199B28073A0319B928362836280C0E34
:1001D800890C0139F300F4017308B0007408B10008
:1001E8002E082F04031D08000230F5000430F40027
:1001F800BA30F300F30BFE28F40BFE28F50BFE28AB
:10020800000020000C0E0139F300F4017308AE0061
:100218007408AF000230F5000430F400BA30F3007F
:10022800F30B1429F40B1429F50B142900002000F2
:100238002E082F04031D0800052922000C148C1415
:100248000C158C15B72920002508B3002408B20026
:100258003308F1003208F000823160228131200039
:100268002C032D04031D3A2922008D1322000C10A3
:1002780002302000B9000030BA0008002708B30097
:100288002608B2003308F1003208F00082316022FB
:100298008131023020002C062D04031D552922002F
:1002A8008D1322008C1003302000B9000030BA00F2
:1002B80008007708B3007608B2003308F100320866
:1002C800F000823160228131033020002C062D0499
:1002D800031D702922008D1322000C110430200008
:1002E800B9000030BA0008007908B3007808B200F5
:1002F8003308F1003208F000823160228131043085
:1003080020002C062D04031D8B2922008D132200AA
:100318008C1101302000B9000030BA00080029080B
:10032800B3002808B2003308F1003208F000823127
:10033800602222000C1006302000B9000030BA00FC
:1003480008002B08B3002A08B2003308F10032086D
:10035800F0008231602222008C1005302000B900A4
:100368000030BA00080020003A08003A0319BD29F5
:10037800D1293908013A03192729033A03194229CF
:10038800013A03195D29073A03197829013A031933
:100398009329033A0319A529D12908008331E623B3
:1003A80081318B170B170330200039063A040319E3
:1003B8002818E3290130A2000030A300E529A20192
:1003C800A3018231C922813120000C0E0139B40009
:1003D800B5013408AE003508AF000C0E890C0139A0
:1003E800B400B5013408B0003508B1002E082F0458
:1003F800031D2C2A0230B6000430B500BA30B40010
:10040800B40B042AB50B042AB60B042A00002000FA
:100418000C0E0139B400B5013408AE003508AF0040
:100428000230B6000430B500BA30B400B40B1A2A52
:10043800B50B1A2AB60B1A2A000020002E082F0422
:1004480003190B2A83312923813120000C1E292A04
:1004580030083104031DD7290230B6000430B50036
:10046800BA30B400B40B362AB50B362AB60B362A86
:10047800000020000C0E890C0139B400B5013408C5
:10048800AE003508AF000230B6000430B500BA300F
:10049800B400B40B4D2AB50B4D2AB60B4D2A0000FB
:1004A80020002E082F0403193D2A8331B6238131F9
:1004B80020008C1AD7295C2A20002208230403195B
:1004C8007C2A8B2AC030792AF930792AA430792AF3
:1004D800B030792A9930792A9230792A8230792A6B
:1004E800F830792A8030792A903022008D008B2AC2
:1004F8007108003A0319812A8B2A700884000A308F
:10050800040203188B2A83310435683E82002000D8
:100518002208230403190800B82A403022008D005D
:100528000800793022008D000800243022008D0058
:100538000800303022008D000800193022008D009C
:100548000800123022008D000800023022008D00C1
:100558000800783022008D00080022008D01080074
:10056800103022008D0008007108003A0319BD2AD6
:10057800C82A700884000A3004020318080083316E
:1005880004357C3E82000800080000302000290263
:100598000A3003192802031C0800A801A9012A0827
:1005A800013EAA0000302B3DAB0000302B02063084
:1005B80003192A02031C0800AA01AB012408013E02
:1005C800A4000030253DA500003025020A3003199B
:1005D8002402031C0800A401A5012608013EA60068
:1005E8000030273DA70000302702063003192602F5
:1005F800031C0800A601A7017608013EF60000309A
:10060800773DF700003079020230031978020318A9
:100618001D2B003077020A3003197602031C1D2BAC
:10062800F601F7017808013EF8000030793DF9003D
:10063800080000307702043003197602031C080012
:10064800F601F701F801F901080001302000B900AE
:100658000030BA000130AC000030AD0080313620E7
:10066800833102302000AC000030AD0080313620EC
:10067800833103302000AC000030AD0080313620DB
:10068800833104302000AC000030AD0080313620CA
:100698002000A801A901AA01AB01AC01AD01080025
:1006A800FF3022008D004F308C0023008C018D011B
:1006B80024008C018D0121008D01B0308C0095172C
:1006C80022009D019E0108008231662A8231682A33
:1006D80082316A2A82316C2A82316E2A8231702AEA
:1006E8008231722A8231742A8231762A8231782ABA
:1006F8008231912A8231952A8231992A82319D2A22
:100708008231A12A8231A52A8231A92A8231AD2AD1
:100718008231B12A8231B42A1A3020009C00F93083
:100728009B009A019110210091141030F3000430BD
:10073800F4008331FF23833184310B240800200027
:1007480091100130A0070030A13D003021027D301A
:1007580003192002031C08008331D7232000A001BD
:10076800A1010800003020003A02053003193902BF
:100778000318C32B0530B9000030BA000800013057
:10078800B9000030BA00080021001508C039143833
:1007980095006030200095006030F3007308FA007F
:1007A8000B118B16080001302000A8070030A93D66
:1007B800370838040319080038088A0037080A007F
:1007C80083310800833154238331843105248331F4
:1007D8008331902383318331C82308000B117A08B1
:1007E8002000950081312121080064008001013139
:1007F800890BFA2B003474082000B8007308B7007E
:1008080008003830210099009A019801080020005A
:0A0818001C1508000134003408002C
:020000040001F9
:04000E00A7FFFFDE6B
:00000001FF
